:040000003CEF04F0DD
:0F0800000048656C6C6F2C20554152542100004C
:1008100011EF04F002C0F6FF0800F5501EEC04F0E2
:10082000022A02C0F6FF0800F5500009D8A41BEF09
:1008300004F01DEF04F00AEF04F01200016E9EA810
:1008400024EF04F026EF04F01FEF04F001C0ADFF29
:10085000120033EC04F0010E026E08EC04F02FEFEE
:1008600004F000EF00F0949C948E4D0EAF6E200EBD
:10087000AC6E900EAB6E1200000EF86E080EF76EA6
:06088000000129EF04F065
:00000001FF
